{
	"hardhat/contracts/Escrow.sol": {
		"Escrow": {
			"abi": [
				{
					"anonymous": false,
					"inputs": [
						{
							"indexed": true,
							"internalType": "string",
							"name": "projectId",
							"type": "string"
						},
						{
							"indexed": false,
							"internalType": "uint256",
							"name": "amount",
							"type": "uint256"
						}
					],
					"name": "Deposited",
					"type": "event"
				},
				{
					"anonymous": false,
					"inputs": [
						{
							"indexed": true,
							"internalType": "string",
							"name": "projectId",
							"type": "string"
						},
						{
							"indexed": true,
							"internalType": "address",
							"name": "freelancer",
							"type": "address"
						},
						{
							"indexed": false,
							"internalType": "uint256",
							"name": "amount",
							"type": "uint256"
						}
					],
					"name": "Released",
					"type": "event"
				},
				{
					"inputs": [
						{
							"internalType": "string",
							"name": "projectId",
							"type": "string"
						}
					],
					"name": "depositFunds",
					"outputs": [],
					"stateMutability": "payable",
					"type": "function"
				},
				{
					"inputs": [
						{
							"internalType": "string",
							"name": "projectId",
							"type": "string"
						}
					],
					"name": "getBalance",
					"outputs": [
						{
							"internalType": "uint256",
							"name": "",
							"type": "uint256"
						}
					],
					"stateMutability": "view",
					"type": "function"
				},
				{
					"inputs": [
						{
							"internalType": "string",
							"name": "",
							"type": "string"
						}
					],
					"name": "projectBalances",
					"outputs": [
						{
							"internalType": "uint256",
							"name": "",
							"type": "uint256"
						}
					],
					"stateMutability": "view",
					"type": "function"
				},
				{
					"inputs": [
						{
							"internalType": "string",
							"name": "projectId",
							"type": "string"
						},
						{
							"internalType": "address payable",
							"name": "freelancer",
							"type": "address"
						},
						{
							"internalType": "uint256",
							"name": "amountInEth",
							"type": "uint256"
						}
					],
					"name": "releaseFunds",
					"outputs": [],
					"stateMutability": "nonpayable",
					"type": "function"
				}
			],
			"devdoc": {
				"kind": "dev",
				"methods": {},
				"version": 1
			},
			"evm": {
				"assembly": "    /* \"hardhat/contracts/Escrow.sol\":58:1359  contract Escrow {... */\n  mstore(0x40, 0x80)\n  callvalue\n  dup1\n  iszero\n  tag_1\n  jumpi\n  0x00\n  dup1\n  revert\ntag_1:\n  pop\n  dataSize(sub_0)\n  dup1\n  dataOffset(sub_0)\n  0x00\n  codecopy\n  0x00\n  return\nstop\n\nsub_0: assembly {\n        /* \"hardhat/contracts/Escrow.sol\":58:1359  contract Escrow {... */\n      mstore(0x40, 0x80)\n      jumpi(tag_1, lt(calldatasize, 0x04))\n      shr(0xe0, calldataload(0x00))\n      dup1\n      0x3a51d246\n      eq\n      tag_2\n      jumpi\n      dup1\n      0xa45ccbc6\n      eq\n      tag_3\n      jumpi\n      dup1\n      0xa4ce6c16\n      eq\n      tag_4\n      jumpi\n      dup1\n      0xe1a0d576\n      eq\n      tag_5\n      jumpi\n    tag_1:\n      0x00\n      dup1\n      revert\n        /* \"hardhat/contracts/Escrow.sol\":1230:1357  function getBalance(string memory projectId) external view returns (uint256) {... */\n    tag_2:\n      callvalue\n      dup1\n      iszero\n      tag_6\n      jumpi\n      0x00\n      dup1\n      revert\n    tag_6:\n      pop\n      tag_7\n      0x04\n      dup1\n      calldatasize\n      sub\n      dup2\n      add\n      swap1\n      tag_8\n      swap2\n      swap1\n      tag_9\n      jump\t// in\n    tag_8:\n      tag_10\n      jump\t// in\n    tag_7:\n      mload(0x40)\n      tag_11\n      swap2\n      swap1\n      tag_12\n      jump\t// in\n    tag_11:\n      mload(0x40)\n      dup1\n      swap2\n      sub\n      swap1\n      return\n        /* \"hardhat/contracts/Escrow.sol\":334:601  function depositFunds(string memory projectId) external payable {... */\n    tag_3:\n      tag_13\n      0x04\n      dup1\n      calldatasize\n      sub\n      dup2\n      add\n      swap1\n      tag_14\n      swap2\n      swap1\n      tag_9\n      jump\t// in\n    tag_14:\n      tag_15\n      jump\t// in\n    tag_13:\n      stop\n        /* \"hardhat/contracts/Escrow.sol\":684:1175  function releaseFunds(string memory projectId, address payable freelancer, uint256 amountInEth) external {... */\n    tag_4:\n      callvalue\n      dup1\n      iszero\n      tag_16\n      jumpi\n      0x00\n      dup1\n      revert\n    tag_16:\n      pop\n      tag_17\n      0x04\n      dup1\n      calldatasize\n      sub\n      dup2\n      add\n      swap1\n      tag_18\n      swap2\n      swap1\n      tag_19\n      jump\t// in\n    tag_18:\n      tag_20\n      jump\t// in\n    tag_17:\n      stop\n        /* \"hardhat/contracts/Escrow.sol\":80:129  mapping(string => uint256) public projectBalances */\n    tag_5:\n      callvalue\n      dup1\n      iszero\n      tag_21\n      jumpi\n      0x00\n      dup1\n      revert\n    tag_21:\n      pop\n      tag_22\n      0x04\n      dup1\n      calldatasize\n      sub\n      dup2\n      add\n      swap1\n      tag_23\n      swap2\n      swap1\n      tag_9\n      jump\t// in\n    tag_23:\n      tag_24\n      jump\t// in\n    tag_22:\n      mload(0x40)\n      tag_25\n      swap2\n      swap1\n      tag_12\n      jump\t// in\n    tag_25:\n      mload(0x40)\n      dup1\n      swap2\n      sub\n      swap1\n      return\n        /* \"hardhat/contracts/Escrow.sol\":1230:1357  function getBalance(string memory projectId) external view returns (uint256) {... */\n    tag_10:\n        /* \"hardhat/contracts/Escrow.sol\":1298:1305  uint256 */\n      0x00\n        /* \"hardhat/contracts/Escrow.sol\":1324:1339  projectBalances */\n      dup1\n        /* \"hardhat/contracts/Escrow.sol\":1340:1349  projectId */\n      dup3\n        /* \"hardhat/contracts/Escrow.sol\":1324:1350  projectBalances[projectId] */\n      mload(0x40)\n      tag_27\n      swap2\n      swap1\n      tag_28\n      jump\t// in\n    tag_27:\n      swap1\n      dup2\n      mstore\n      0x20\n      add\n      mload(0x40)\n      dup1\n      swap2\n      sub\n      swap1\n      keccak256\n      sload\n        /* \"hardhat/contracts/Escrow.sol\":1317:1350  return projectBalances[projectId] */\n      swap1\n      pop\n        /* \"hardhat/contracts/Escrow.sol\":1230:1357  function getBalance(string memory projectId) external view returns (uint256) {... */\n      swap2\n      swap1\n      pop\n      jump\t// out\n        /* \"hardhat/contracts/Escrow.sol\":334:601  function depositFunds(string memory projectId) external payable {... */\n    tag_15:\n        /* \"hardhat/contracts/Escrow.sol\":428:429  0 */\n      0x00\n        /* \"hardhat/contracts/Escrow.sol\":416:425  msg.value */\n      callvalue\n        /* \"hardhat/contracts/Escrow.sol\":416:429  msg.value > 0 */\n      gt\n        /* \"hardhat/contracts/Escrow.sol\":408:466  require(msg.value > 0, \"Amount must be greater than zero\") */\n      tag_30\n      jumpi\n      mload(0x40)\n      0x08c379a000000000000000000000000000000000000000000000000000000000\n      dup2\n      mstore\n      0x04\n      add\n      tag_31\n      swap1\n      tag_32\n      jump\t// in\n    tag_31:\n      mload(0x40)\n      dup1\n      swap2\n      sub\n      swap1\n      revert\n    tag_30:\n        /* \"hardhat/contracts/Escrow.sol\":507:516  msg.value */\n      callvalue\n        /* \"hardhat/contracts/Escrow.sol\":477:492  projectBalances */\n      0x00\n        /* \"hardhat/contracts/Escrow.sol\":493:502  projectId */\n      dup3\n        /* \"hardhat/contracts/Escrow.sol\":477:503  projectBalances[projectId] */\n      mload(0x40)\n      tag_33\n      swap2\n      swap1\n      tag_28\n      jump\t// in\n    tag_33:\n      swap1\n      dup2\n      mstore\n      0x20\n      add\n      mload(0x40)\n      dup1\n      swap2\n      sub\n      swap1\n      keccak256\n      0x00\n        /* \"hardhat/contracts/Escrow.sol\":477:516  projectBalances[projectId] += msg.value */\n      dup3\n      dup3\n      sload\n      tag_34\n      swap2\n      swap1\n      tag_35\n      jump\t// in\n    tag_34:\n      swap3\n      pop\n      pop\n      dup2\n      swap1\n      sstore\n      pop\n        /* \"hardhat/contracts/Escrow.sol\":573:582  projectId */\n      dup1\n        /* \"hardhat/contracts/Escrow.sol\":563:594  Deposited(projectId, msg.value) */\n      mload(0x40)\n      tag_36\n      swap2\n      swap1\n      tag_28\n      jump\t// in\n    tag_36:\n      mload(0x40)\n      dup1\n      swap2\n      sub\n      swap1\n      keccak256\n      0x880c4b7c8747669306e3b72460e49eb603636d5b46288bdd42ce8e3cc9df737e\n        /* \"hardhat/contracts/Escrow.sol\":584:593  msg.value */\n      callvalue\n        /* \"hardhat/contracts/Escrow.sol\":563:594  Deposited(projectId, msg.value) */\n      mload(0x40)\n      tag_37\n      swap2\n      swap1\n      tag_12\n      jump\t// in\n    tag_37:\n      mload(0x40)\n      dup1\n      swap2\n      sub\n      swap1\n      log2\n        /* \"hardhat/contracts/Escrow.sol\":334:601  function depositFunds(string memory projectId) external payable {... */\n      pop\n      jump\t// out\n        /* \"hardhat/contracts/Escrow.sol\":684:1175  function releaseFunds(string memory projectId, address payable freelancer, uint256 amountInEth) external {... */\n    tag_20:\n        /* \"hardhat/contracts/Escrow.sol\":799:818  uint256 amountInWei */\n      0x00\n        /* \"hardhat/contracts/Escrow.sol\":835:839  1e18 */\n      0x0de0b6b3a7640000\n        /* \"hardhat/contracts/Escrow.sol\":821:832  amountInEth */\n      dup3\n        /* \"hardhat/contracts/Escrow.sol\":821:839  amountInEth * 1e18 */\n      tag_39\n      swap2\n      swap1\n      tag_40\n      jump\t// in\n    tag_39:\n        /* \"hardhat/contracts/Escrow.sol\":799:839  uint256 amountInWei = amountInEth * 1e18 */\n      swap1\n      pop\n        /* \"hardhat/contracts/Escrow.sol\":894:895  0 */\n      0x00\n        /* \"hardhat/contracts/Escrow.sol\":880:891  amountInWei */\n      dup2\n        /* \"hardhat/contracts/Escrow.sol\":880:895  amountInWei > 0 */\n      gt\n        /* \"hardhat/contracts/Escrow.sol\":872:932  require(amountInWei > 0, \"Amount must be greater than zero\") */\n      tag_41\n      jumpi\n      mload(0x40)\n      0x08c379a000000000000000000000000000000000000000000000000000000000\n      dup2\n      mstore\n      0x04\n      add\n      tag_42\n      swap1\n      tag_32\n      jump\t// in\n    tag_42:\n      mload(0x40)\n      dup1\n      swap2\n      sub\n      swap1\n      revert\n    tag_41:\n        /* \"hardhat/contracts/Escrow.sol\":980:991  amountInWei */\n      dup1\n        /* \"hardhat/contracts/Escrow.sol\":950:965  projectBalances */\n      0x00\n        /* \"hardhat/contracts/Escrow.sol\":966:975  projectId */\n      dup6\n        /* \"hardhat/contracts/Escrow.sol\":950:976  projectBalances[projectId] */\n      mload(0x40)\n      tag_43\n      swap2\n      swap1\n      tag_28\n      jump\t// in\n    tag_43:\n      swap1\n      dup2\n      mstore\n      0x20\n      add\n      mload(0x40)\n      dup1\n      swap2\n      sub\n      swap1\n      keccak256\n      sload\n        /* \"hardhat/contracts/Escrow.sol\":950:991  projectBalances[projectId] >= amountInWei */\n      lt\n      iszero\n        /* \"hardhat/contracts/Escrow.sol\":942:1014  require(projectBalances[projectId] >= amountInWei, \"Insufficient funds\") */\n      tag_44\n      jumpi\n      mload(0x40)\n      0x08c379a000000000000000000000000000000000000000000000000000000000\n      dup2\n      mstore\n      0x04\n      add\n      tag_45\n      swap1\n      tag_46\n      jump\t// in\n    tag_45:\n      mload(0x40)\n      dup1\n      swap2\n      sub\n      swap1\n      revert\n    tag_44:\n        /* \"hardhat/contracts/Escrow.sol\":1055:1066  amountInWei */\n      dup1\n        /* \"hardhat/contracts/Escrow.sol\":1025:1040  projectBalances */\n      0x00\n        /* \"hardhat/contracts/Escrow.sol\":1041:1050  projectId */\n      dup6\n        /* \"hardhat/contracts/Escrow.sol\":1025:1051  projectBalances[projectId] */\n      mload(0x40)\n      tag_47\n      swap2\n      swap1\n      tag_28\n      jump\t// in\n    tag_47:\n      swap1\n      dup2\n      mstore\n      0x20\n      add\n      mload(0x40)\n      dup1\n      swap2\n      sub\n      swap1\n      keccak256\n      0x00\n        /* \"hardhat/contracts/Escrow.sol\":1025:1066  projectBalances[projectId] -= amountInWei */\n      dup3\n      dup3\n      sload\n      tag_48\n      swap2\n      swap1\n      tag_49\n      jump\t// in\n    tag_48:\n      swap3\n      pop\n      pop\n      dup2\n      swap1\n      sstore\n      pop\n        /* \"hardhat/contracts/Escrow.sol\":1076:1086  freelancer */\n      dup3\n        /* \"hardhat/contracts/Escrow.sol\":1076:1095  freelancer.transfer */\n      0xffffffffffffffffffffffffffffffffffffffff\n      and\n        /* \"hardhat/contracts/Escrow.sol\":1076:1108  freelancer.transfer(amountInWei) */\n      0x08fc\n        /* \"hardhat/contracts/Escrow.sol\":1096:1107  amountInWei */\n      dup3\n        /* \"hardhat/contracts/Escrow.sol\":1076:1108  freelancer.transfer(amountInWei) */\n      swap1\n      dup2\n      iszero\n      mul\n      swap1\n      mload(0x40)\n      0x00\n      mload(0x40)\n      dup1\n      dup4\n      sub\n      dup2\n      dup6\n      dup9\n      dup9\n      call\n      swap4\n      pop\n      pop\n      pop\n      pop\n      iszero\n      dup1\n      iszero\n      tag_51\n      jumpi\n      returndatasize\n      0x00\n      dup1\n      returndatacopy\n      revert(0x00, returndatasize)\n    tag_51:\n      pop\n        /* \"hardhat/contracts/Escrow.sol\":1144:1154  freelancer */\n      dup3\n        /* \"hardhat/contracts/Escrow.sol\":1124:1168  Released(projectId, freelancer, amountInWei) */\n      0xffffffffffffffffffffffffffffffffffffffff\n      and\n        /* \"hardhat/contracts/Escrow.sol\":1133:1142  projectId */\n      dup5\n        /* \"hardhat/contracts/Escrow.sol\":1124:1168  Released(projectId, freelancer, amountInWei) */\n      mload(0x40)\n      tag_52\n      swap2\n      swap1\n      tag_28\n      jump\t// in\n    tag_52:\n      mload(0x40)\n      dup1\n      swap2\n      sub\n      swap1\n      keccak256\n      0xecfaefb21a9167b242135b5b3860739608248e70c5b1bc89a05221f147ff31f7\n        /* \"hardhat/contracts/Escrow.sol\":1156:1167  amountInWei */\n      dup4\n        /* \"hardhat/contracts/Escrow.sol\":1124:1168  Released(projectId, freelancer, amountInWei) */\n      mload(0x40)\n      tag_53\n      swap2\n      swap1\n      tag_12\n      jump\t// in\n    tag_53:\n      mload(0x40)\n      dup1\n      swap2\n      sub\n      swap1\n      log3\n        /* \"hardhat/contracts/Escrow.sol\":789:1175  {... */\n      pop\n        /* \"hardhat/contracts/Escrow.sol\":684:1175  function releaseFunds(string memory projectId, address payable freelancer, uint256 amountInEth) external {... */\n      pop\n      pop\n      pop\n      jump\t// out\n        /* \"hardhat/contracts/Escrow.sol\":80:129  mapping(string => uint256) public projectBalances */\n    tag_24:\n      0x00\n      dup2\n      dup1\n      mload\n      0x20\n      dup2\n      add\n      dup3\n      add\n      dup1\n      mload\n      dup5\n      dup3\n      mstore\n      0x20\n      dup4\n      add\n      0x20\n      dup6\n      add\n      keccak256\n      dup2\n      dup4\n      mstore\n      dup1\n      swap6\n      pop\n      pop\n      pop\n      pop\n      pop\n      pop\n      0x00\n      swap2\n      pop\n      swap1\n      pop\n      sload\n      dup2\n      jump\t// out\n        /* \"#utility.yul\":7:82   */\n    tag_54:\n        /* \"#utility.yul\":40:46   */\n      0x00\n        /* \"#utility.yul\":73:75   */\n      0x40\n        /* \"#utility.yul\":67:76   */\n      mload\n        /* \"#utility.yul\":57:76   */\n      swap1\n      pop\n        /* \"#utility.yul\":7:82   */\n      swap1\n      jump\t// out\n        /* \"#utility.yul\":88:205   */\n    tag_55:\n        /* \"#utility.yul\":197:198   */\n      0x00\n        /* \"#utility.yul\":194:195   */\n      dup1\n        /* \"#utility.yul\":187:199   */\n      revert\n        /* \"#utility.yul\":211:328   */\n    tag_56:\n        /* \"#utility.yul\":320:321   */\n      0x00\n        /* \"#utility.yul\":317:318   */\n      dup1\n        /* \"#utility.yul\":310:322   */\n      revert\n        /* \"#utility.yul\":334:451   */\n    tag_57:\n        /* \"#utility.yul\":443:444   */\n      0x00\n        /* \"#utility.yul\":440:441   */\n      dup1\n        /* \"#utility.yul\":433:445   */\n      revert\n        /* \"#utility.yul\":457:574   */\n    tag_58:\n        /* \"#utility.yul\":566:567   */\n      0x00\n        /* \"#utility.yul\":563:564   */\n      dup1\n        /* \"#utility.yul\":556:568   */\n      revert\n        /* \"#utility.yul\":580:682   */\n    tag_59:\n        /* \"#utility.yul\":621:627   */\n      0x00\n        /* \"#utility.yul\":672:674   */\n      0x1f\n        /* \"#utility.yul\":668:675   */\n      not\n        /* \"#utility.yul\":663:665   */\n      0x1f\n        /* \"#utility.yul\":656:661   */\n      dup4\n        /* \"#utility.yul\":652:666   */\n      add\n        /* \"#utility.yul\":648:676   */\n      and\n        /* \"#utility.yul\":638:676   */\n      swap1\n      pop\n        /* \"#utility.yul\":580:682   */\n      swap2\n      swap1\n      pop\n      jump\t// out\n        /* \"#utility.yul\":688:868   */\n    tag_60:\n        /* \"#utility.yul\":736:813   */\n      0x4e487b7100000000000000000000000000000000000000000000000000000000\n        /* \"#utility.yul\":733:734   */\n      0x00\n        /* \"#utility.yul\":726:814   */\n      mstore\n        /* \"#utility.yul\":833:837   */\n      0x41\n        /* \"#utility.yul\":830:831   */\n      0x04\n        /* \"#utility.yul\":823:838   */\n      mstore\n        /* \"#utility.yul\":857:861   */\n      0x24\n        /* \"#utility.yul\":854:855   */\n      0x00\n        /* \"#utility.yul\":847:862   */\n      revert\n        /* \"#utility.yul\":874:1155   */\n    tag_61:\n        /* \"#utility.yul\":957:984   */\n      tag_94\n        /* \"#utility.yul\":979:983   */\n      dup3\n        /* \"#utility.yul\":957:984   */\n      tag_59\n      jump\t// in\n    tag_94:\n        /* \"#utility.yul\":949:955   */\n      dup2\n        /* \"#utility.yul\":945:985   */\n      add\n        /* \"#utility.yul\":1087:1093   */\n      dup2\n        /* \"#utility.yul\":1075:1085   */\n      dup2\n        /* \"#utility.yul\":1072:1094   */\n      lt\n        /* \"#utility.yul\":1051:1069   */\n      0xffffffffffffffff\n        /* \"#utility.yul\":1039:1049   */\n      dup3\n        /* \"#utility.yul\":1036:1070   */\n      gt\n        /* \"#utility.yul\":1033:1095   */\n      or\n        /* \"#utility.yul\":1030:1118   */\n      iszero\n      tag_95\n      jumpi\n        /* \"#utility.yul\":1098:1116   */\n      tag_96\n      tag_60\n      jump\t// in\n    tag_96:\n        /* \"#utility.yul\":1030:1118   */\n    tag_95:\n        /* \"#utility.yul\":1138:1148   */\n      dup1\n        /* \"#utility.yul\":1134:1136   */\n      0x40\n        /* \"#utility.yul\":1127:1149   */\n      mstore\n        /* \"#utility.yul\":917:1155   */\n      pop\n        /* \"#utility.yul\":874:1155   */\n      pop\n      pop\n      jump\t// out\n        /* \"#utility.yul\":1161:1290   */\n    tag_62:\n        /* \"#utility.yul\":1195:1201   */\n      0x00\n        /* \"#utility.yul\":1222:1242   */\n      tag_98\n      tag_54\n      jump\t// in\n    tag_98:\n        /* \"#utility.yul\":1212:1242   */\n      swap1\n      pop\n        /* \"#utility.yul\":1251:1284   */\n      tag_99\n        /* \"#utility.yul\":1279:1283   */\n      dup3\n        /* \"#utility.yul\":1271:1277   */\n      dup3\n        /* \"#utility.yul\":1251:1284   */\n      tag_61\n      jump\t// in\n    tag_99:\n        /* \"#utility.yul\":1161:1290   */\n      swap2\n      swap1\n      pop\n      jump\t// out\n        /* \"#utility.yul\":1296:1604   */\n    tag_63:\n        /* \"#utility.yul\":1358:1362   */\n      0x00\n        /* \"#utility.yul\":1448:1466   */\n      0xffffffffffffffff\n        /* \"#utility.yul\":1440:1446   */\n      dup3\n        /* \"#utility.yul\":1437:1467   */\n      gt\n        /* \"#utility.yul\":1434:1490   */\n      iszero\n      tag_101\n      jumpi\n        /* \"#utility.yul\":1470:1488   */\n      tag_102\n      tag_60\n      jump\t// in\n    tag_102:\n        /* \"#utility.yul\":1434:1490   */\n    tag_101:\n        /* \"#utility.yul\":1508:1537   */\n      tag_103\n        /* \"#utility.yul\":1530:1536   */\n      dup3\n        /* \"#utility.yul\":1508:1537   */\n      tag_59\n      jump\t// in\n    tag_103:\n        /* \"#utility.yul\":1500:1537   */\n      swap1\n      pop\n        /* \"#utility.yul\":1592:1596   */\n      0x20\n        /* \"#utility.yul\":1586:1590   */\n      dup2\n        /* \"#utility.yul\":1582:1597   */\n      add\n        /* \"#utility.yul\":1574:1597   */\n      swap1\n      pop\n        /* \"#utility.yul\":1296:1604   */\n      swap2\n      swap1\n      pop\n      jump\t// out\n        /* \"#utility.yul\":1610:1758   */\n    tag_64:\n        /* \"#utility.yul\":1708:1714   */\n      dup3\n        /* \"#utility.yul\":1703:1706   */\n      dup2\n        /* \"#utility.yul\":1698:1701   */\n      dup4\n        /* \"#utility.yul\":1685:1715   */\n      calldatacopy\n        /* \"#utility.yul\":1749:1750   */\n      0x00\n        /* \"#utility.yul\":1740:1746   */\n      dup4\n        /* \"#utility.yul\":1735:1738   */\n      dup4\n        /* \"#utility.yul\":1731:1747   */\n      add\n        /* \"#utility.yul\":1724:1751   */\n      mstore\n        /* \"#utility.yul\":1610:1758   */\n      pop\n      pop\n      pop\n      jump\t// out\n        /* \"#utility.yul\":1764:2189   */\n    tag_65:\n        /* \"#utility.yul\":1842:1847   */\n      0x00\n        /* \"#utility.yul\":1867:1933   */\n      tag_106\n        /* \"#utility.yul\":1883:1932   */\n      tag_107\n        /* \"#utility.yul\":1925:1931   */\n      dup5\n        /* \"#utility.yul\":1883:1932   */\n      tag_63\n      jump\t// in\n    tag_107:\n        /* \"#utility.yul\":1867:1933   */\n      tag_62\n      jump\t// in\n    tag_106:\n        /* \"#utility.yul\":1858:1933   */\n      swap1\n      pop\n        /* \"#utility.yul\":1956:1962   */\n      dup3\n        /* \"#utility.yul\":1949:1954   */\n      dup2\n        /* \"#utility.yul\":1942:1963   */\n      mstore\n        /* \"#utility.yul\":1994:1998   */\n      0x20\n        /* \"#utility.yul\":1987:1992   */\n      dup2\n        /* \"#utility.yul\":1983:1999   */\n      add\n        /* \"#utility.yul\":2032:2035   */\n      dup5\n        /* \"#utility.yul\":2023:2029   */\n      dup5\n        /* \"#utility.yul\":2018:2021   */\n      dup5\n        /* \"#utility.yul\":2014:2030   */\n      add\n        /* \"#utility.yul\":2011:2036   */\n      gt\n        /* \"#utility.yul\":2008:2120   */\n      iszero\n      tag_108\n      jumpi\n        /* \"#utility.yul\":2039:2118   */\n      tag_109\n      tag_58\n      jump\t// in\n    tag_109:\n        /* \"#utility.yul\":2008:2120   */\n    tag_108:\n        /* \"#utility.yul\":2129:2183   */\n      tag_110\n        /* \"#utility.yul\":2176:2182   */\n      dup5\n        /* \"#utility.yul\":2171:2174   */\n      dup3\n        /* \"#utility.yul\":2166:2169   */\n      dup6\n        /* \"#utility.yul\":2129:2183   */\n      tag_64\n      jump\t// in\n    tag_110:\n        /* \"#utility.yul\":1848:2189   */\n      pop\n        /* \"#utility.yul\":1764:2189   */\n      swap4\n      swap3\n      pop\n      pop\n      pop\n      jump\t// out\n        /* \"#utility.yul\":2209:2549   */\n    tag_66:\n        /* \"#utility.yul\":2265:2270   */\n      0x00\n        /* \"#utility.yul\":2314:2317   */\n      dup3\n        /* \"#utility.yul\":2307:2311   */\n      0x1f\n        /* \"#utility.yul\":2299:2305   */\n      dup4\n        /* \"#utility.yul\":2295:2312   */\n      add\n        /* \"#utility.yul\":2291:2318   */\n      slt\n        /* \"#utility.yul\":2281:2403   */\n      tag_112\n      jumpi\n        /* \"#utility.yul\":2322:2401   */\n      tag_113\n      tag_57\n      jump\t// in\n    tag_113:\n        /* \"#utility.yul\":2281:2403   */\n    tag_112:\n        /* \"#utility.yul\":2439:2445   */\n      dup2\n        /* \"#utility.yul\":2426:2446   */\n      calldataload\n        /* \"#utility.yul\":2464:2543   */\n      tag_114\n        /* \"#utility.yul\":2539:2542   */\n      dup5\n        /* \"#utility.yul\":2531:2537   */\n      dup3\n        /* \"#utility.yul\":2524:2528   */\n      0x20\n        /* \"#utility.yul\":2516:2522   */\n      dup7\n        /* \"#utility.yul\":2512:2529   */\n      add\n        /* \"#utility.yul\":2464:2543   */\n      tag_65\n      jump\t// in\n    tag_114:\n        /* \"#utility.yul\":2455:2543   */\n      swap2\n      pop\n        /* \"#utility.yul\":2271:2549   */\n      pop\n        /* \"#utility.yul\":2209:2549   */\n      swap3\n      swap2\n      pop\n      pop\n      jump\t// out\n        /* \"#utility.yul\":2555:3064   */\n    tag_9:\n        /* \"#utility.yul\":2624:2630   */\n      0x00\n        /* \"#utility.yul\":2673:2675   */\n      0x20\n        /* \"#utility.yul\":2661:2670   */\n      dup3\n        /* \"#utility.yul\":2652:2659   */\n      dup5\n        /* \"#utility.yul\":2648:2671   */\n      sub\n        /* \"#utility.yul\":2644:2676   */\n      slt\n        /* \"#utility.yul\":2641:2760   */\n      iszero\n      tag_116\n      jumpi\n        /* \"#utility.yul\":2679:2758   */\n      tag_117\n      tag_55\n      jump\t// in\n    tag_117:\n        /* \"#utility.yul\":2641:2760   */\n    tag_116:\n        /* \"#utility.yul\":2827:2828   */\n      0x00\n        /* \"#utility.yul\":2816:2825   */\n      dup3\n        /* \"#utility.yul\":2812:2829   */\n      add\n        /* \"#utility.yul\":2799:2830   */\n      calldataload\n        /* \"#utility.yul\":2857:2875   */\n      0xffffffffffffffff\n        /* \"#utility.yul\":2849:2855   */\n      dup2\n        /* \"#utility.yul\":2846:2876   */\n      gt\n        /* \"#utility.yul\":2843:2960   */\n      iszero\n      tag_118\n      jumpi\n        /* \"#utility.yul\":2879:2958   */\n      tag_119\n      tag_56\n      jump\t// in\n    tag_119:\n        /* \"#utility.yul\":2843:2960   */\n    tag_118:\n        /* \"#utility.yul\":2984:3047   */\n      tag_120\n        /* \"#utility.yul\":3039:3046   */\n      dup5\n        /* \"#utility.yul\":3030:3036   */\n      dup3\n        /* \"#utility.yul\":3019:3028   */\n      dup6\n        /* \"#utility.yul\":3015:3037   */\n      add\n        /* \"#utility.yul\":2984:3047   */\n      tag_66\n      jump\t// in\n    tag_120:\n        /* \"#utility.yul\":2974:3047   */\n      swap2\n      pop\n        /* \"#utility.yul\":2770:3057   */\n      pop\n        /* \"#utility.yul\":2555:3064   */\n      swap3\n      swap2\n      pop\n      pop\n      jump\t// out\n        /* \"#utility.yul\":3070:3147   */\n    tag_67:\n        /* \"#utility.yul\":3107:3114   */\n      0x00\n        /* \"#utility.yul\":3136:3141   */\n      dup2\n        /* \"#utility.yul\":3125:3141   */\n      swap1\n      pop\n        /* \"#utility.yul\":3070:3147   */\n      swap2\n      swap1\n      pop\n      jump\t// out\n        /* \"#utility.yul\":3153:3271   */\n    tag_68:\n        /* \"#utility.yul\":3240:3264   */\n      tag_123\n        /* \"#utility.yul\":3258:3263   */\n      dup2\n        /* \"#utility.yul\":3240:3264   */\n      tag_67\n      jump\t// in\n    tag_123:\n        /* \"#utility.yul\":3235:3238   */\n      dup3\n        /* \"#utility.yul\":3228:3265   */\n      mstore\n        /* \"#utility.yul\":3153:3271   */\n      pop\n      pop\n      jump\t// out\n        /* \"#utility.yul\":3277:3499   */\n    tag_12:\n        /* \"#utility.yul\":3370:3374   */\n      0x00\n        /* \"#utility.yul\":3408:3410   */\n      0x20\n        /* \"#utility.yul\":3397:3406   */\n      dup3\n        /* \"#utility.yul\":3393:3411   */\n      add\n        /* \"#utility.yul\":3385:3411   */\n      swap1\n      pop\n        /* \"#utility.yul\":3421:3492   */\n      tag_125\n        /* \"#utility.yul\":3489:3490   */\n      0x00\n        /* \"#utility.yul\":3478:3487   */\n      dup4\n        /* \"#utility.yul\":3474:3491   */\n      add\n        /* \"#utility.yul\":3465:3471   */\n      dup5\n        /* \"#utility.yul\":3421:3492   */\n      tag_68\n      jump\t// in\n    tag_125:\n        /* \"#utility.yul\":3277:3499   */\n      swap3\n      swap2\n      pop\n      pop\n      jump\t// out\n        /* \"#utility.yul\":3505:3631   */\n    tag_69:\n        /* \"#utility.yul\":3542:3549   */\n      0x00\n        /* \"#utility.yul\":3582:3624   */\n      0xffffffffffffffffffffffffffffffffffffffff\n        /* \"#utility.yul\":3575:3580   */\n      dup3\n        /* \"#utility.yul\":3571:3625   */\n      and\n        /* \"#utility.yul\":3560:3625   */\n      swap1\n      pop\n        /* \"#utility.yul\":3505:3631   */\n      swap2\n      swap1\n      pop\n      jump\t// out\n        /* \"#utility.yul\":3637:3741   */\n    tag_70:\n        /* \"#utility.yul\":3682:3689   */\n      0x00\n        /* \"#utility.yul\":3711:3735   */\n      tag_128\n        /* \"#utility.yul\":3729:3734   */\n      dup3\n        /* \"#utility.yul\":3711:3735   */\n      tag_69\n      jump\t// in\n    tag_128:\n        /* \"#utility.yul\":3700:3735   */\n      swap1\n      pop\n        /* \"#utility.yul\":3637:3741   */\n      swap2\n      swap1\n      pop\n      jump\t// out\n        /* \"#utility.yul\":3747:3885   */\n    tag_71:\n        /* \"#utility.yul\":3828:3860   */\n      tag_130\n        /* \"#utility.yul\":3854:3859   */\n      dup2\n        /* \"#utility.yul\":3828:3860   */\n      tag_70\n      jump\t// in\n    tag_130:\n        /* \"#utility.yul\":3821:3826   */\n      dup2\n        /* \"#utility.yul\":3818:3861   */\n      eq\n        /* \"#utility.yul\":3808:3879   */\n      tag_131\n      jumpi\n        /* \"#utility.yul\":3875:3876   */\n      0x00\n        /* \"#utility.yul\":3872:3873   */\n      dup1\n        /* \"#utility.yul\":3865:3877   */\n      revert\n        /* \"#utility.yul\":3808:3879   */\n    tag_131:\n        /* \"#utility.yul\":3747:3885   */\n      pop\n      jump\t// out\n        /* \"#utility.yul\":3891:4046   */\n    tag_72:\n        /* \"#utility.yul\":3945:3950   */\n      0x00\n        /* \"#utility.yul\":3983:3989   */\n      dup2\n        /* \"#utility.yul\":3970:3990   */\n      calldataload\n        /* \"#utility.yul\":3961:3990   */\n      swap1\n      pop\n        /* \"#utility.yul\":3999:4040   */\n      tag_133\n        /* \"#utility.yul\":4034:4039   */\n      dup2\n        /* \"#utility.yul\":3999:4040   */\n      tag_71\n      jump\t// in\n    tag_133:\n        /* \"#utility.yul\":3891:4046   */\n      swap3\n      swap2\n      pop\n      pop\n      jump\t// out\n        /* \"#utility.yul\":4052:4174   */\n    tag_73:\n        /* \"#utility.yul\":4125:4149   */\n      tag_135\n        /* \"#utility.yul\":4143:4148   */\n      dup2\n        /* \"#utility.yul\":4125:4149   */\n      tag_67\n      jump\t// in\n    tag_135:\n        /* \"#utility.yul\":4118:4123   */\n      dup2\n        /* \"#utility.yul\":4115:4150   */\n      eq\n        /* \"#utility.yul\":4105:4168   */\n      tag_136\n      jumpi\n        /* \"#utility.yul\":4164:4165   */\n      0x00\n        /* \"#utility.yul\":4161:4162   */\n      dup1\n        /* \"#utility.yul\":4154:4166   */\n      revert\n        /* \"#utility.yul\":4105:4168   */\n    tag_136:\n        /* \"#utility.yul\":4052:4174   */\n      pop\n      jump\t// out\n        /* \"#utility.yul\":4180:4319   */\n    tag_74:\n        /* \"#utility.yul\":4226:4231   */\n      0x00\n        /* \"#utility.yul\":4264:4270   */\n      dup2\n        /* \"#utility.yul\":4251:4271   */\n      calldataload\n        /* \"#utility.yul\":4242:4271   */\n      swap1\n      pop\n        /* \"#utility.yul\":4280:4313   */\n      tag_138\n        /* \"#utility.yul\":4307:4312   */\n      dup2\n        /* \"#utility.yul\":4280:4313   */\n      tag_73\n      jump\t// in\n    tag_138:\n        /* \"#utility.yul\":4180:4319   */\n      swap3\n      swap2\n      pop\n      pop\n      jump\t// out\n        /* \"#utility.yul\":4325:5140   */\n    tag_19:\n        /* \"#utility.yul\":4420:4426   */\n      0x00\n        /* \"#utility.yul\":4428:4434   */\n      dup1\n        /* \"#utility.yul\":4436:4442   */\n      0x00\n        /* \"#utility.yul\":4485:4487   */\n      0x60\n        /* \"#utility.yul\":4473:4482   */\n      dup5\n        /* \"#utility.yul\":4464:4471   */\n      dup7\n        /* \"#utility.yul\":4460:4483   */\n      sub\n        /* \"#utility.yul\":4456:4488   */\n      slt\n        /* \"#utility.yul\":4453:4572   */\n      iszero\n      tag_140\n      jumpi\n        /* \"#utility.yul\":4491:4570   */\n      tag_141\n      tag_55\n      jump\t// in\n    tag_141:\n        /* \"#utility.yul\":4453:4572   */\n    tag_140:\n        /* \"#utility.yul\":4639:4640   */\n      0x00\n        /* \"#utility.yul\":4628:4637   */\n      dup5\n        /* \"#utility.yul\":4624:4641   */\n      add\n        /* \"#utility.yul\":4611:4642   */\n      calldataload\n        /* \"#utility.yul\":4669:4687   */\n      0xffffffffffffffff\n        /* \"#utility.yul\":4661:4667   */\n      dup2\n        /* \"#utility.yul\":4658:4688   */\n      gt\n        /* \"#utility.yul\":4655:4772   */\n      iszero\n      tag_142\n      jumpi\n        /* \"#utility.yul\":4691:4770   */\n      tag_143\n      tag_56\n      jump\t// in\n    tag_143:\n        /* \"#utility.yul\":4655:4772   */\n    tag_142:\n        /* \"#utility.yul\":4796:4859   */\n      tag_144\n        /* \"#utility.yul\":4851:4858   */\n      dup7\n        /* \"#utility.yul\":4842:4848   */\n      dup3\n        /* \"#utility.yul\":4831:4840   */\n      dup8\n        /* \"#utility.yul\":4827:4849   */\n      add\n        /* \"#utility.yul\":4796:4859   */\n      tag_66\n      jump\t// in\n    tag_144:\n        /* \"#utility.yul\":4786:4859   */\n      swap4\n      pop\n        /* \"#utility.yul\":4582:4869   */\n      pop\n        /* \"#utility.yul\":4908:4910   */\n      0x20\n        /* \"#utility.yul\":4934:4995   */\n      tag_145\n        /* \"#utility.yul\":4987:4994   */\n      dup7\n        /* \"#utility.yul\":4978:4984   */\n      dup3\n        /* \"#utility.yul\":4967:4976   */\n      dup8\n        /* \"#utility.yul\":4963:4985   */\n      add\n        /* \"#utility.yul\":4934:4995   */\n      tag_72\n      jump\t// in\n    tag_145:\n        /* \"#utility.yul\":4924:4995   */\n      swap3\n      pop\n        /* \"#utility.yul\":4879:5005   */\n      pop\n        /* \"#utility.yul\":5044:5046   */\n      0x40\n        /* \"#utility.yul\":5070:5123   */\n      tag_146\n        /* \"#utility.yul\":5115:5122   */\n      dup7\n        /* \"#utility.yul\":5106:5112   */\n      dup3\n        /* \"#utility.yul\":5095:5104   */\n      dup8\n        /* \"#utility.yul\":5091:5113   */\n      add\n        /* \"#utility.yul\":5070:5123   */\n      tag_74\n      jump\t// in\n    tag_146:\n        /* \"#utility.yul\":5060:5123   */\n      swap2\n      pop\n        /* \"#utility.yul\":5015:5133   */\n      pop\n        /* \"#utility.yul\":4325:5140   */\n      swap3\n      pop\n      swap3\n      pop\n      swap3\n      jump\t// out\n        /* \"#utility.yul\":5146:5245   */\n    tag_75:\n        /* \"#utility.yul\":5198:5204   */\n      0x00\n        /* \"#utility.yul\":5232:5237   */\n      dup2\n        /* \"#utility.yul\":5226:5238   */\n      mload\n        /* \"#utility.yul\":5216:5238   */\n      swap1\n      pop\n        /* \"#utility.yul\":5146:5245   */\n      swap2\n      swap1\n      pop\n      jump\t// out\n        /* \"#utility.yul\":5251:5399   */\n    tag_76:\n        /* \"#utility.yul\":5353:5364   */\n      0x00\n        /* \"#utility.yul\":5390:5393   */\n      dup2\n        /* \"#utility.yul\":5375:5393   */\n      swap1\n      pop\n        /* \"#utility.yul\":5251:5399   */\n      swap3\n      swap2\n      pop\n      pop\n      jump\t// out\n        /* \"#utility.yul\":5405:5544   */\n    tag_77:\n        /* \"#utility.yul\":5494:5500   */\n      dup3\n        /* \"#utility.yul\":5489:5492   */\n      dup2\n        /* \"#utility.yul\":5484:5487   */\n      dup4\n        /* \"#utility.yul\":5478:5501   */\n      mcopy\n        /* \"#utility.yul\":5535:5536   */\n      0x00\n        /* \"#utility.yul\":5526:5532   */\n      dup4\n        /* \"#utility.yul\":5521:5524   */\n      dup4\n        /* \"#utility.yul\":5517:5533   */\n      add\n        /* \"#utility.yul\":5510:5537   */\n      mstore\n        /* \"#utility.yul\":5405:5544   */\n      pop\n      pop\n      pop\n      jump\t// out\n        /* \"#utility.yul\":5550:5940   */\n    tag_78:\n        /* \"#utility.yul\":5656:5659   */\n      0x00\n        /* \"#utility.yul\":5684:5723   */\n      tag_151\n        /* \"#utility.yul\":5717:5722   */\n      dup3\n        /* \"#utility.yul\":5684:5723   */\n      tag_75\n      jump\t// in\n    tag_151:\n        /* \"#utility.yul\":5739:5828   */\n      tag_152\n        /* \"#utility.yul\":5821:5827   */\n      dup2\n        /* \"#utility.yul\":5816:5819   */\n      dup6\n        /* \"#utility.yul\":5739:5828   */\n      tag_76\n      jump\t// in\n    tag_152:\n        /* \"#utility.yul\":5732:5828   */\n      swap4\n      pop\n        /* \"#utility.yul\":5837:5902   */\n      tag_153\n        /* \"#utility.yul\":5895:5901   */\n      dup2\n        /* \"#utility.yul\":5890:5893   */\n      dup6\n        /* \"#utility.yul\":5883:5887   */\n      0x20\n        /* \"#utility.yul\":5876:5881   */\n      dup7\n        /* \"#utility.yul\":5872:5888   */\n      add\n        /* \"#utility.yul\":5837:5902   */\n      tag_77\n      jump\t// in\n    tag_153:\n        /* \"#utility.yul\":5927:5933   */\n      dup1\n        /* \"#utility.yul\":5922:5925   */\n      dup5\n        /* \"#utility.yul\":5918:5934   */\n      add\n        /* \"#utility.yul\":5911:5934   */\n      swap2\n      pop\n        /* \"#utility.yul\":5660:5940   */\n      pop\n        /* \"#utility.yul\":5550:5940   */\n      swap3\n      swap2\n      pop\n      pop\n      jump\t// out\n        /* \"#utility.yul\":5946:6221   */\n    tag_28:\n        /* \"#utility.yul\":6078:6081   */\n      0x00\n        /* \"#utility.yul\":6100:6195   */\n      tag_155\n        /* \"#utility.yul\":6191:6194   */\n      dup3\n        /* \"#utility.yul\":6182:6188   */\n      dup5\n        /* \"#utility.yul\":6100:6195   */\n      tag_78\n      jump\t// in\n    tag_155:\n        /* \"#utility.yul\":6093:6195   */\n      swap2\n      pop\n        /* \"#utility.yul\":6212:6215   */\n      dup2\n        /* \"#utility.yul\":6205:6215   */\n      swap1\n      pop\n        /* \"#utility.yul\":5946:6221   */\n      swap3\n      swap2\n      pop\n      pop\n      jump\t// out\n        /* \"#utility.yul\":6227:6396   */\n    tag_79:\n        /* \"#utility.yul\":6311:6322   */\n      0x00\n        /* \"#utility.yul\":6345:6351   */\n      dup3\n        /* \"#utility.yul\":6340:6343   */\n      dup3\n        /* \"#utility.yul\":6333:6352   */\n      mstore\n        /* \"#utility.yul\":6385:6389   */\n      0x20\n        /* \"#utility.yul\":6380:6383   */\n      dup3\n        /* \"#utility.yul\":6376:6390   */\n      add\n        /* \"#utility.yul\":6361:6390   */\n      swap1\n      pop\n        /* \"#utility.yul\":6227:6396   */\n      swap3\n      swap2\n      pop\n      pop\n      jump\t// out\n        /* \"#utility.yul\":6402:6584   */\n    tag_80:\n        /* \"#utility.yul\":6542:6576   */\n      0x416d6f756e74206d7573742062652067726561746572207468616e207a65726f\n        /* \"#utility.yul\":6538:6539   */\n      0x00\n        /* \"#utility.yul\":6530:6536   */\n      dup3\n        /* \"#utility.yul\":6526:6540   */\n      add\n        /* \"#utility.yul\":6519:6577   */\n      mstore\n        /* \"#utility.yul\":6402:6584   */\n      pop\n      jump\t// out\n        /* \"#utility.yul\":6590:6956   */\n    tag_81:\n        /* \"#utility.yul\":6732:6735   */\n      0x00\n        /* \"#utility.yul\":6753:6820   */\n      tag_159\n        /* \"#utility.yul\":6817:6819   */\n      0x20\n        /* \"#utility.yul\":6812:6815   */\n      dup4\n        /* \"#utility.yul\":6753:6820   */\n      tag_79\n      jump\t// in\n    tag_159:\n        /* \"#utility.yul\":6746:6820   */\n      swap2\n      pop\n        /* \"#utility.yul\":6829:6922   */\n      tag_160\n        /* \"#utility.yul\":6918:6921   */\n      dup3\n        /* \"#utility.yul\":6829:6922   */\n      tag_80\n      jump\t// in\n    tag_160:\n        /* \"#utility.yul\":6947:6949   */\n      0x20\n        /* \"#utility.yul\":6942:6945   */\n      dup3\n        /* \"#utility.yul\":6938:6950   */\n      add\n        /* \"#utility.yul\":6931:6950   */\n      swap1\n      pop\n        /* \"#utility.yul\":6590:6956   */\n      swap2\n      swap1\n      pop\n      jump\t// out\n        /* \"#utility.yul\":6962:7381   */\n    tag_32:\n        /* \"#utility.yul\":7128:7132   */\n      0x00\n        /* \"#utility.yul\":7166:7168   */\n      0x20\n        /* \"#utility.yul\":7155:7164   */\n      dup3\n        /* \"#utility.yul\":7151:7169   */\n      add\n        /* \"#utility.yul\":7143:7169   */\n      swap1\n      pop\n        /* \"#utility.yul\":7215:7224   */\n      dup2\n        /* \"#utility.yul\":7209:7213   */\n      dup2\n        /* \"#utility.yul\":7205:7225   */\n      sub\n        /* \"#utility.yul\":7201:7202   */\n      0x00\n        /* \"#utility.yul\":7190:7199   */\n      dup4\n        /* \"#utility.yul\":7186:7203   */\n      add\n        /* \"#utility.yul\":7179:7226   */\n      mstore\n        /* \"#utility.yul\":7243:7374   */\n      tag_162\n        /* \"#utility.yul\":7369:7373   */\n      dup2\n        /* \"#utility.yul\":7243:7374   */\n      tag_81\n      jump\t// in\n    tag_162:\n        /* \"#utility.yul\":7235:7374   */\n      swap1\n      pop\n        /* \"#utility.yul\":6962:7381   */\n      swap2\n      swap1\n      pop\n      jump\t// out\n        /* \"#utility.yul\":7387:7567   */\n    tag_82:\n        /* \"#utility.yul\":7435:7512   */\n      0x4e487b7100000000000000000000000000000000000000000000000000000000\n        /* \"#utility.yul\":7432:7433   */\n      0x00\n        /* \"#utility.yul\":7425:7513   */\n      mstore\n        /* \"#utility.yul\":7532:7536   */\n      0x11\n        /* \"#utility.yul\":7529:7530   */\n      0x04\n        /* \"#utility.yul\":7522:7537   */\n      mstore\n        /* \"#utility.yul\":7556:7560   */\n      0x24\n        /* \"#utility.yul\":7553:7554   */\n      0x00\n        /* \"#utility.yul\":7546:7561   */\n      revert\n        /* \"#utility.yul\":7573:7764   */\n    tag_35:\n        /* \"#utility.yul\":7613:7616   */\n      0x00\n        /* \"#utility.yul\":7632:7652   */\n      tag_165\n        /* \"#utility.yul\":7650:7651   */\n      dup3\n        /* \"#utility.yul\":7632:7652   */\n      tag_67\n      jump\t// in\n    tag_165:\n        /* \"#utility.yul\":7627:7652   */\n      swap2\n      pop\n        /* \"#utility.yul\":7666:7686   */\n      tag_166\n        /* \"#utility.yul\":7684:7685   */\n      dup4\n        /* \"#utility.yul\":7666:7686   */\n      tag_67\n      jump\t// in\n    tag_166:\n        /* \"#utility.yul\":7661:7686   */\n      swap3\n      pop\n        /* \"#utility.yul\":7709:7710   */\n      dup3\n        /* \"#utility.yul\":7706:7707   */\n      dup3\n        /* \"#utility.yul\":7702:7711   */\n      add\n        /* \"#utility.yul\":7695:7711   */\n      swap1\n      pop\n        /* \"#utility.yul\":7730:7733   */\n      dup1\n        /* \"#utility.yul\":7727:7728   */\n      dup3\n        /* \"#utility.yul\":7724:7734   */\n      gt\n        /* \"#utility.yul\":7721:7757   */\n      iszero\n      tag_167\n      jumpi\n        /* \"#utility.yul\":7737:7755   */\n      tag_168\n      tag_82\n      jump\t// in\n    tag_168:\n        /* \"#utility.yul\":7721:7757   */\n    tag_167:\n        /* \"#utility.yul\":7573:7764   */\n      swap3\n      swap2\n      pop\n      pop\n      jump\t// out\n        /* \"#utility.yul\":7770:8180   */\n    tag_40:\n        /* \"#utility.yul\":7810:7817   */\n      0x00\n        /* \"#utility.yul\":7833:7853   */\n      tag_170\n        /* \"#utility.yul\":7851:7852   */\n      dup3\n        /* \"#utility.yul\":7833:7853   */\n      tag_67\n      jump\t// in\n    tag_170:\n        /* \"#utility.yul\":7828:7853   */\n      swap2\n      pop\n        /* \"#utility.yul\":7867:7887   */\n      tag_171\n        /* \"#utility.yul\":7885:7886   */\n      dup4\n        /* \"#utility.yul\":7867:7887   */\n      tag_67\n      jump\t// in\n    tag_171:\n        /* \"#utility.yul\":7862:7887   */\n      swap3\n      pop\n        /* \"#utility.yul\":7922:7923   */\n      dup3\n        /* \"#utility.yul\":7919:7920   */\n      dup3\n        /* \"#utility.yul\":7915:7924   */\n      mul\n        /* \"#utility.yul\":7944:7974   */\n      tag_172\n        /* \"#utility.yul\":7962:7973   */\n      dup2\n        /* \"#utility.yul\":7944:7974   */\n      tag_67\n      jump\t// in\n    tag_172:\n        /* \"#utility.yul\":7933:7974   */\n      swap2\n      pop\n        /* \"#utility.yul\":8123:8124   */\n      dup3\n        /* \"#utility.yul\":8114:8121   */\n      dup3\n        /* \"#utility.yul\":8110:8125   */\n      div\n        /* \"#utility.yul\":8107:8108   */\n      dup5\n        /* \"#utility.yul\":8104:8126   */\n      eq\n        /* \"#utility.yul\":8084:8085   */\n      dup4\n        /* \"#utility.yul\":8077:8086   */\n      iszero\n        /* \"#utility.yul\":8057:8140   */\n      or\n        /* \"#utility.yul\":8034:8173   */\n      tag_173\n      jumpi\n        /* \"#utility.yul\":8153:8171   */\n      tag_174\n      tag_82\n      jump\t// in\n    tag_174:\n        /* \"#utility.yul\":8034:8173   */\n    tag_173:\n        /* \"#utility.yul\":7818:8180   */\n      pop\n        /* \"#utility.yul\":7770:8180   */\n      swap3\n      swap2\n      pop\n      pop\n      jump\t// out\n        /* \"#utility.yul\":8186:8354   */\n    tag_83:\n        /* \"#utility.yul\":8326:8346   */\n      0x496e73756666696369656e742066756e64730000000000000000000000000000\n        /* \"#utility.yul\":8322:8323   */\n      0x00\n        /* \"#utility.yul\":8314:8320   */\n      dup3\n        /* \"#utility.yul\":8310:8324   */\n      add\n        /* \"#utility.yul\":8303:8347   */\n      mstore\n        /* \"#utility.yul\":8186:8354   */\n      pop\n      jump\t// out\n        /* \"#utility.yul\":8360:8726   */\n    tag_84:\n        /* \"#utility.yul\":8502:8505   */\n      0x00\n        /* \"#utility.yul\":8523:8590   */\n      tag_177\n        /* \"#utility.yul\":8587:8589   */\n      0x12\n        /* \"#utility.yul\":8582:8585   */\n      dup4\n        /* \"#utility.yul\":8523:8590   */\n      tag_79\n      jump\t// in\n    tag_177:\n        /* \"#utility.yul\":8516:8590   */\n      swap2\n      pop\n        /* \"#utility.yul\":8599:8692   */\n      tag_178\n        /* \"#utility.yul\":8688:8691   */\n      dup3\n        /* \"#utility.yul\":8599:8692   */\n      tag_83\n      jump\t// in\n    tag_178:\n        /* \"#utility.yul\":8717:8719   */\n      0x20\n        /* \"#utility.yul\":8712:8715   */\n      dup3\n        /* \"#utility.yul\":8708:8720   */\n      add\n        /* \"#utility.yul\":8701:8720   */\n      swap1\n      pop\n        /* \"#utility.yul\":8360:8726   */\n      swap2\n      swap1\n      pop\n      jump\t// out\n        /* \"#utility.yul\":8732:9151   */\n    tag_46:\n        /* \"#utility.yul\":8898:8902   */\n      0x00\n        /* \"#utility.yul\":8936:8938   */\n      0x20\n        /* \"#utility.yul\":8925:8934   */\n      dup3\n        /* \"#utility.yul\":8921:8939   */\n      add\n        /* \"#utility.yul\":8913:8939   */\n      swap1\n      pop\n        /* \"#utility.yul\":8985:8994   */\n      dup2\n        /* \"#utility.yul\":8979:8983   */\n      dup2\n        /* \"#utility.yul\":8975:8995   */\n      sub\n        /* \"#utility.yul\":8971:8972   */\n      0x00\n        /* \"#utility.yul\":8960:8969   */\n      dup4\n        /* \"#utility.yul\":8956:8973   */\n      add\n        /* \"#utility.yul\":8949:8996   */\n      mstore\n        /* \"#utility.yul\":9013:9144   */\n      tag_180\n        /* \"#utility.yul\":9139:9143   */\n      dup2\n        /* \"#utility.yul\":9013:9144   */\n      tag_84\n      jump\t// in\n    tag_180:\n        /* \"#utility.yul\":9005:9144   */\n      swap1\n      pop\n        /* \"#utility.yul\":8732:9151   */\n      swap2\n      swap1\n      pop\n      jump\t// out\n        /* \"#utility.yul\":9157:9351   */\n    tag_49:\n        /* \"#utility.yul\":9197:9201   */\n      0x00\n        /* \"#utility.yul\":9217:9237   */\n      tag_182\n        /* \"#utility.yul\":9235:9236   */\n      dup3\n        /* \"#utility.yul\":9217:9237   */\n      tag_67\n      jump\t// in\n    tag_182:\n        /* \"#utility.yul\":9212:9237   */\n      swap2\n      pop\n        /* \"#utility.yul\":9251:9271   */\n      tag_183\n        /* \"#utility.yul\":9269:9270   */\n      dup4\n        /* \"#utility.yul\":9251:9271   */\n      tag_67\n      jump\t// in\n    tag_183:\n        /* \"#utility.yul\":9246:9271   */\n      swap3\n      pop\n        /* \"#utility.yul\":9295:9296   */\n      dup3\n        /* \"#utility.yul\":9292:9293   */\n      dup3\n        /* \"#utility.yul\":9288:9297   */\n      sub\n        /* \"#utility.yul\":9280:9297   */\n      swap1\n      pop\n        /* \"#utility.yul\":9319:9320   */\n      dup2\n        /* \"#utility.yul\":9313:9317   */\n      dup2\n        /* \"#utility.yul\":9310:9321   */\n      gt\n        /* \"#utility.yul\":9307:9344   */\n      iszero\n      tag_184\n      jumpi\n        /* \"#utility.yul\":9324:9342   */\n      tag_185\n      tag_82\n      jump\t// in\n    tag_185:\n        /* \"#utility.yul\":9307:9344   */\n    tag_184:\n        /* \"#utility.yul\":9157:9351   */\n      swap3\n      swap2\n      pop\n      pop\n      jump\t// out\n\n    auxdata: 0xa264697066735822122020ad5ab322210f51a3219afe2a45f6b114212de9862085c142bb3753edbd3be264736f6c634300081a0033\n}\n",
				"bytecode": {
					"linkReferences": {},
					"object": "6080604052348015600e575f80fd5b506108b68061001c5f395ff3fe60806040526004361061003e575f3560e01c80633a51d24614610042578063a45ccbc61461007e578063a4ce6c161461009a578063e1a0d576146100c2575b5f80fd5b34801561004d575f80fd5b50610068600480360381019061006391906104fc565b6100fe565b604051610075919061055b565b60405180910390f35b610098600480360381019061009391906104fc565b610124565b005b3480156100a5575f80fd5b506100c060048036038101906100bb91906105f8565b6101e9565b005b3480156100cd575f80fd5b506100e860048036038101906100e391906104fc565b610383565b6040516100f5919061055b565b60405180910390f35b5f808260405161010e91906106b6565b9081526020016040518091039020549050919050565b5f3411610166576040517f08c379a000000000000000000000000000000000000000000000000000000000815260040161015d90610726565b60405180910390fd5b345f8260405161017691906106b6565b90815260200160405180910390205f8282546101929190610771565b92505081905550806040516101a791906106b6565b60405180910390207f880c4b7c8747669306e3b72460e49eb603636d5b46288bdd42ce8e3cc9df737e346040516101de919061055b565b60405180910390a250565b5f670de0b6b3a7640000826101fe91906107a4565b90505f8111610242576040517f08c379a000000000000000000000000000000000000000000000000000000000815260040161023990610726565b60405180910390fd5b805f8560405161025291906106b6565b90815260200160405180910390205410156102a2576040517f08c379a00000000000000000000000000000000000000000000000000000000081526004016102999061082f565b60405180910390fd5b805f856040516102b291906106b6565b90815260200160405180910390205f8282546102ce919061084d565b925050819055508273ffffffffffffffffffffffffffffffffffffffff166108fc8290811502906040515f60405180830381858888f19350505050158015610318573d5f803e3d5ffd5b508273ffffffffffffffffffffffffffffffffffffffff168460405161033e91906106b6565b60405180910390207fecfaefb21a9167b242135b5b3860739608248e70c5b1bc89a05221f147ff31f783604051610375919061055b565b60405180910390a350505050565b5f818051602081018201805184825260208301602085012081835280955050505050505f915090505481565b5f604051905090565b5f80fd5b5f80fd5b5f80fd5b5f80fd5b5f601f19601f8301169050919050565b7f4e487b71000000000000000000000000000000000000000000000000000000005f52604160045260245ffd5b61040e826103c8565b810181811067ffffffffffffffff8211171561042d5761042c6103d8565b5b80604052505050565b5f61043f6103af565b905061044b8282610405565b919050565b5f67ffffffffffffffff82111561046a576104696103d8565b5b610473826103c8565b9050602081019050919050565b828183375f83830152505050565b5f6104a061049b84610450565b610436565b9050828152602081018484840111156104bc576104bb6103c4565b5b6104c7848285610480565b509392505050565b5f82601f8301126104e3576104e26103c0565b5b81356104f384826020860161048e565b91505092915050565b5f60208284031215610511576105106103b8565b5b5f82013567ffffffffffffffff81111561052e5761052d6103bc565b5b61053a848285016104cf565b91505092915050565b5f819050919050565b61055581610543565b82525050565b5f60208201905061056e5f83018461054c565b92915050565b5f73ffffffffffffffffffffffffffffffffffffffff82169050919050565b5f61059d82610574565b9050919050565b6105ad81610593565b81146105b7575f80fd5b50565b5f813590506105c8816105a4565b92915050565b6105d781610543565b81146105e1575f80fd5b50565b5f813590506105f2816105ce565b92915050565b5f805f6060848603121561060f5761060e6103b8565b5b5f84013567ffffffffffffffff81111561062c5761062b6103bc565b5b610638868287016104cf565b9350506020610649868287016105ba565b925050604061065a868287016105e4565b9150509250925092565b5f81519050919050565b5f81905092915050565b8281835e5f83830152505050565b5f61069082610664565b61069a818561066e565b93506106aa818560208601610678565b80840191505092915050565b5f6106c18284610686565b915081905092915050565b5f82825260208201905092915050565b7f416d6f756e74206d7573742062652067726561746572207468616e207a65726f5f82015250565b5f6107106020836106cc565b915061071b826106dc565b602082019050919050565b5f6020820190508181035f83015261073d81610704565b9050919050565b7f4e487b71000000000000000000000000000000000000000000000000000000005f52601160045260245ffd5b5f61077b82610543565b915061078683610543565b925082820190508082111561079e5761079d610744565b5b92915050565b5f6107ae82610543565b91506107b983610543565b92508282026107c781610543565b915082820484148315176107de576107dd610744565b5b5092915050565b7f496e73756666696369656e742066756e647300000000000000000000000000005f82015250565b5f6108196012836106cc565b9150610824826107e5565b602082019050919050565b5f6020820190508181035f8301526108468161080d565b9050919050565b5f61085782610543565b915061086283610543565b925082820390508181111561087a57610879610744565b5b9291505056fea264697066735822122020ad5ab322210f51a3219afe2a45f6b114212de9862085c142bb3753edbd3be264736f6c634300081a0033",
					"opcodes": "PUSH1 0x80 PUSH1 0x40 MSTORE CALLVALUE DUP1 ISZERO PUSH1 0xE JUMPI PUSH0 DUP1 REVERT JUMPDEST POP PUSH2 0x8B6 DUP1 PUSH2 0x1C PUSH0 CODECOPY PUSH0 RETURN INVALID PUSH1 0x80 PUSH1 0x40 MSTORE PUSH1 0x4 CALLDATASIZE LT PUSH2 0x3E JUMPI PUSH0 CALLDATALOAD PUSH1 0xE0 SHR DUP1 PUSH4 0x3A51D246 EQ PUSH2 0x42 JUMPI DUP1 PUSH4 0xA45CCBC6 EQ PUSH2 0x7E JUMPI DUP1 PUSH4 0xA4CE6C16 EQ PUSH2 0x9A JUMPI DUP1 PUSH4 0xE1A0D576 EQ PUSH2 0xC2 JUMPI JUMPDEST PUSH0 DUP1 REVERT JUMPDEST CALLVALUE DUP1 ISZERO PUSH2 0x4D JUMPI PUSH0 DUP1 REVERT JUMPDEST POP PUSH2 0x68 PUSH1 0x4 DUP1 CALLDATASIZE SUB DUP2 ADD SWAP1 PUSH2 0x63 SWAP2 SWAP1 PUSH2 0x4FC JUMP JUMPDEST PUSH2 0xFE JUMP JUMPDEST PUSH1 0x40 MLOAD PUSH2 0x75 SWAP2 SWAP1 PUSH2 0x55B JUMP JUMPDEST PUSH1 0x40 MLOAD DUP1 SWAP2 SUB SWAP1 RETURN JUMPDEST PUSH2 0x98 PUSH1 0x4 DUP1 CALLDATASIZE SUB DUP2 ADD SWAP1 PUSH2 0x93 SWAP2 SWAP1 PUSH2 0x4FC JUMP JUMPDEST PUSH2 0x124 JUMP JUMPDEST STOP JUMPDEST CALLVALUE DUP1 ISZERO PUSH2 0xA5 JUMPI PUSH0 DUP1 REVERT JUMPDEST POP PUSH2 0xC0 PUSH1 0x4 DUP1 CALLDATASIZE SUB DUP2 ADD SWAP1 PUSH2 0xBB SWAP2 SWAP1 PUSH2 0x5F8 JUMP JUMPDEST PUSH2 0x1E9 JUMP JUMPDEST STOP JUMPDEST CALLVALUE DUP1 ISZERO PUSH2 0xCD JUMPI PUSH0 DUP1 REVERT JUMPDEST POP PUSH2 0xE8 PUSH1 0x4 DUP1 CALLDATASIZE SUB DUP2 ADD SWAP1 PUSH2 0xE3 SWAP2 SWAP1 PUSH2 0x4FC JUMP JUMPDEST PUSH2 0x383 JUMP JUMPDEST PUSH1 0x40 MLOAD PUSH2 0xF5 SWAP2 SWAP1 PUSH2 0x55B JUMP JUMPDEST PUSH1 0x40 MLOAD DUP1 SWAP2 SUB SWAP1 RETURN JUMPDEST PUSH0 DUP1 DUP3 PUSH1 0x40 MLOAD PUSH2 0x10E SWAP2 SWAP1 PUSH2 0x6B6 JUMP JUMPDEST SWAP1 DUP2 MSTORE PUSH1 0x20 ADD PUSH1 0x40 MLOAD DUP1 SWAP2 SUB SWAP1 KECCAK256 SLOAD SWAP1 POP SWAP2 SWAP1 POP JUMP JUMPDEST PUSH0 CALLVALUE GT PUSH2 0x166 JUMPI PUSH1 0x40 MLOAD PUSH32 0x8C379A000000000000000000000000000000000000000000000000000000000 DUP2 MSTORE PUSH1 0x4 ADD PUSH2 0x15D SWAP1 PUSH2 0x726 JUMP JUMPDEST PUSH1 0x40 MLOAD DUP1 SWAP2 SUB SWAP1 REVERT JUMPDEST CALLVALUE PUSH0 DUP3 PUSH1 0x40 MLOAD PUSH2 0x176 SWAP2 SWAP1 PUSH2 0x6B6 JUMP JUMPDEST SWAP1 DUP2 MSTORE PUSH1 0x20 ADD PUSH1 0x40 MLOAD DUP1 SWAP2 SUB SWAP1 KECCAK256 PUSH0 DUP3 DUP3 SLOAD PUSH2 0x192 SWAP2 SWAP1 PUSH2 0x771 JUMP JUMPDEST SWAP3 POP POP DUP2 SWAP1 SSTORE POP DUP1 PUSH1 0x40 MLOAD PUSH2 0x1A7 SWAP2 SWAP1 PUSH2 0x6B6 JUMP JUMPDEST PUSH1 0x40 MLOAD DUP1 SWAP2 SUB SWAP1 KECCAK256 PUSH32 0x880C4B7C8747669306E3B72460E49EB603636D5B46288BDD42CE8E3CC9DF737E CALLVALUE PUSH1 0x40 MLOAD PUSH2 0x1DE SWAP2 SWAP1 PUSH2 0x55B JUMP JUMPDEST PUSH1 0x40 MLOAD DUP1 SWAP2 SUB SWAP1 LOG2 POP JUMP JUMPDEST PUSH0 PUSH8 0xDE0B6B3A7640000 DUP3 PUSH2 0x1FE SWAP2 SWAP1 PUSH2 0x7A4 JUMP JUMPDEST SWAP1 POP PUSH0 DUP2 GT PUSH2 0x242 JUMPI PUSH1 0x40 MLOAD PUSH32 0x8C379A000000000000000000000000000000000000000000000000000000000 DUP2 MSTORE PUSH1 0x4 ADD PUSH2 0x239 SWAP1 PUSH2 0x726 JUMP JUMPDEST PUSH1 0x40 MLOAD DUP1 SWAP2 SUB SWAP1 REVERT JUMPDEST DUP1 PUSH0 DUP6 PUSH1 0x40 MLOAD PUSH2 0x252 SWAP2 SWAP1 PUSH2 0x6B6 JUMP JUMPDEST SWAP1 DUP2 MSTORE PUSH1 0x20 ADD PUSH1 0x40 MLOAD DUP1 SWAP2 SUB SWAP1 KECCAK256 SLOAD LT ISZERO PUSH2 0x2A2 JUMPI PUSH1 0x40 MLOAD PUSH32 0x8C379A000000000000000000000000000000000000000000000000000000000 DUP2 MSTORE PUSH1 0x4 ADD PUSH2 0x299 SWAP1 PUSH2 0x82F JUMP JUMPDEST PUSH1 0x40 MLOAD DUP1 SWAP2 SUB SWAP1 REVERT JUMPDEST DUP1 PUSH0 DUP6 PUSH1 0x40 MLOAD PUSH2 0x2B2 SWAP2 SWAP1 PUSH2 0x6B6 JUMP JUMPDEST SWAP1 DUP2 MSTORE PUSH1 0x20 ADD PUSH1 0x40 MLOAD DUP1 SWAP2 SUB SWAP1 KECCAK256 PUSH0 DUP3 DUP3 SLOAD PUSH2 0x2CE SWAP2 SWAP1 PUSH2 0x84D JUMP JUMPDEST SWAP3 POP POP DUP2 SWAP1 SSTORE POP DUP3 PUSH20 0xFFFFFFFFFFFFFFFFFFFFFFFFFFFFFFFFFFFFFFFF AND PUSH2 0x8FC DUP3 SWAP1 DUP2 ISZERO MUL SWAP1 PUSH1 0x40 MLOAD PUSH0 PUSH1 0x40 MLOAD DUP1 DUP4 SUB DUP2 DUP6 DUP9 DUP9 CALL SWAP4 POP POP POP POP ISZERO DUP1 ISZERO PUSH2 0x318 JUMPI RETURNDATASIZE PUSH0 DUP1 RETURNDATACOPY RETURNDATASIZE PUSH0 REVERT JUMPDEST POP DUP3 PUSH20 0xFFFFFFFFFFFFFFFFFFFFFFFFFFFFFFFFFFFFFFFF AND DUP5 PUSH1 0x40 MLOAD PUSH2 0x33E SWAP2 SWAP1 PUSH2 0x6B6 JUMP JUMPDEST PUSH1 0x40 MLOAD DUP1 SWAP2 SUB SWAP1 KECCAK256 PUSH32 0xECFAEFB21A9167B242135B5B3860739608248E70C5B1BC89A05221F147FF31F7 DUP4 PUSH1 0x40 MLOAD PUSH2 0x375 SWAP2 SWAP1 PUSH2 0x55B JUMP JUMPDEST PUSH1 0x40 MLOAD DUP1 SWAP2 SUB SWAP1 LOG3 POP POP POP POP JUMP JUMPDEST PUSH0 DUP2 DUP1 MLOAD PUSH1 0x20 DUP2 ADD DUP3 ADD DUP1 MLOAD DUP5 DUP3 MSTORE PUSH1 0x20 DUP4 ADD PUSH1 0x20 DUP6 ADD KECCAK256 DUP2 DUP4 MSTORE DUP1 SWAP6 POP POP POP POP POP POP PUSH0 SWAP2 POP SWAP1 POP SLOAD DUP2 JUMP JUMPDEST PUSH0 PUSH1 0x40 MLOAD SWAP1 POP SWAP1 JUMP JUMPDEST PUSH0 DUP1 REVERT JUMPDEST PUSH0 DUP1 REVERT JUMPDEST PUSH0 DUP1 REVERT JUMPDEST PUSH0 DUP1 REVERT JUMPDEST PUSH0 PUSH1 0x1F NOT PUSH1 0x1F DUP4 ADD AND SWAP1 POP SWAP2 SWAP1 POP JUMP JUMPDEST PUSH32 0x4E487B7100000000000000000000000000000000000000000000000000000000 PUSH0 MSTORE PUSH1 0x41 PUSH1 0x4 MSTORE PUSH1 0x24 PUSH0 REVERT JUMPDEST PUSH2 0x40E DUP3 PUSH2 0x3C8 JUMP JUMPDEST DUP2 ADD DUP2 DUP2 LT PUSH8 0xFFFFFFFFFFFFFFFF DUP3 GT OR ISZERO PUSH2 0x42D JUMPI PUSH2 0x42C PUSH2 0x3D8 JUMP JUMPDEST JUMPDEST DUP1 PUSH1 0x40 MSTORE POP POP POP JUMP JUMPDEST PUSH0 PUSH2 0x43F PUSH2 0x3AF JUMP JUMPDEST SWAP1 POP PUSH2 0x44B DUP3 DUP3 PUSH2 0x405 JUMP JUMPDEST SWAP2 SWAP1 POP JUMP JUMPDEST PUSH0 PUSH8 0xFFFFFFFFFFFFFFFF DUP3 GT ISZERO PUSH2 0x46A JUMPI PUSH2 0x469 PUSH2 0x3D8 JUMP JUMPDEST JUMPDEST PUSH2 0x473 DUP3 PUSH2 0x3C8 JUMP JUMPDEST SWAP1 POP PUSH1 0x20 DUP2 ADD SWAP1 POP SWAP2 SWAP1 POP JUMP JUMPDEST DUP3 DUP2 DUP4 CALLDATACOPY PUSH0 DUP4 DUP4 ADD MSTORE POP POP POP JUMP JUMPDEST PUSH0 PUSH2 0x4A0 PUSH2 0x49B DUP5 PUSH2 0x450 JUMP JUMPDEST PUSH2 0x436 JUMP JUMPDEST SWAP1 POP DUP3 DUP2 MSTORE PUSH1 0x20 DUP2 ADD DUP5 DUP5 DUP5 ADD GT ISZERO PUSH2 0x4BC JUMPI PUSH2 0x4BB PUSH2 0x3C4 JUMP JUMPDEST JUMPDEST PUSH2 0x4C7 DUP5 DUP3 DUP6 PUSH2 0x480 JUMP JUMPDEST POP SWAP4 SWAP3 POP POP POP JUMP JUMPDEST PUSH0 DUP3 PUSH1 0x1F DUP4 ADD SLT PUSH2 0x4E3 JUMPI PUSH2 0x4E2 PUSH2 0x3C0 JUMP JUMPDEST JUMPDEST DUP2 CALLDATALOAD PUSH2 0x4F3 DUP5 DUP3 PUSH1 0x20 DUP7 ADD PUSH2 0x48E JUMP JUMPDEST SWAP2 POP POP SWAP3 SWAP2 POP POP JUMP JUMPDEST PUSH0 PUSH1 0x20 DUP3 DUP5 SUB SLT ISZERO PUSH2 0x511 JUMPI PUSH2 0x510 PUSH2 0x3B8 JUMP JUMPDEST JUMPDEST PUSH0 DUP3 ADD CALLDATALOAD PUSH8 0xFFFFFFFFFFFFFFFF DUP2 GT ISZERO PUSH2 0x52E JUMPI PUSH2 0x52D PUSH2 0x3BC JUMP JUMPDEST JUMPDEST PUSH2 0x53A DUP5 DUP3 DUP6 ADD PUSH2 0x4CF JUMP JUMPDEST SWAP2 POP POP SWAP3 SWAP2 POP POP JUMP JUMPDEST PUSH0 DUP2 SWAP1 POP SWAP2 SWAP1 POP JUMP JUMPDEST PUSH2 0x555 DUP2 PUSH2 0x543 JUMP JUMPDEST DUP3 MSTORE POP POP JUMP JUMPDEST PUSH0 PUSH1 0x20 DUP3 ADD SWAP1 POP PUSH2 0x56E PUSH0 DUP4 ADD DUP5 PUSH2 0x54C JUMP JUMPDEST SWAP3 SWAP2 POP POP JUMP JUMPDEST PUSH0 PUSH20 0xFFFFFFFFFFFFFFFFFFFFFFFFFFFFFFFFFFFFFFFF DUP3 AND SWAP1 POP SWAP2 SWAP1 POP JUMP JUMPDEST PUSH0 PUSH2 0x59D DUP3 PUSH2 0x574 JUMP JUMPDEST SWAP1 POP SWAP2 SWAP1 POP JUMP JUMPDEST PUSH2 0x5AD DUP2 PUSH2 0x593 JUMP JUMPDEST DUP2 EQ PUSH2 0x5B7 JUMPI PUSH0 DUP1 REVERT JUMPDEST POP JUMP JUMPDEST PUSH0 DUP2 CALLDATALOAD SWAP1 POP PUSH2 0x5C8 DUP2 PUSH2 0x5A4 JUMP JUMPDEST SWAP3 SWAP2 POP POP JUMP JUMPDEST PUSH2 0x5D7 DUP2 PUSH2 0x543 JUMP JUMPDEST DUP2 EQ PUSH2 0x5E1 JUMPI PUSH0 DUP1 REVERT JUMPDEST POP JUMP JUMPDEST PUSH0 DUP2 CALLDATALOAD SWAP1 POP PUSH2 0x5F2 DUP2 PUSH2 0x5CE JUMP JUMPDEST SWAP3 SWAP2 POP POP JUMP JUMPDEST PUSH0 DUP1 PUSH0 PUSH1 0x60 DUP5 DUP7 SUB SLT ISZERO PUSH2 0x60F JUMPI PUSH2 0x60E PUSH2 0x3B8 JUMP JUMPDEST JUMPDEST PUSH0 DUP5 ADD CALLDATALOAD PUSH8 0xFFFFFFFFFFFFFFFF DUP2 GT ISZERO PUSH2 0x62C JUMPI PUSH2 0x62B PUSH2 0x3BC JUMP JUMPDEST JUMPDEST PUSH2 0x638 DUP7 DUP3 DUP8 ADD PUSH2 0x4CF JUMP JUMPDEST SWAP4 POP POP PUSH1 0x20 PUSH2 0x649 DUP7 DUP3 DUP8 ADD PUSH2 0x5BA JUMP JUMPDEST SWAP3 POP POP PUSH1 0x40 PUSH2 0x65A DUP7 DUP3 DUP8 ADD PUSH2 0x5E4 JUMP JUMPDEST SWAP2 POP POP SWAP3 POP SWAP3 POP SWAP3 JUMP JUMPDEST PUSH0 DUP2 MLOAD SWAP1 POP SWAP2 SWAP1 POP JUMP JUMPDEST PUSH0 DUP2 SWAP1 POP SWAP3 SWAP2 POP POP JUMP JUMPDEST DUP3 DUP2 DUP4 MCOPY PUSH0 DUP4 DUP4 ADD MSTORE POP POP POP JUMP JUMPDEST PUSH0 PUSH2 0x690 DUP3 PUSH2 0x664 JUMP JUMPDEST PUSH2 0x69A DUP2 DUP6 PUSH2 0x66E JUMP JUMPDEST SWAP4 POP PUSH2 0x6AA DUP2 DUP6 PUSH1 0x20 DUP7 ADD PUSH2 0x678 JUMP JUMPDEST DUP1 DUP5 ADD SWAP2 POP POP SWAP3 SWAP2 POP POP JUMP JUMPDEST PUSH0 PUSH2 0x6C1 DUP3 DUP5 PUSH2 0x686 JUMP JUMPDEST SWAP2 POP DUP2 SWAP1 POP SWAP3 SWAP2 POP POP JUMP JUMPDEST PUSH0 DUP3 DUP3 MSTORE PUSH1 0x20 DUP3 ADD SWAP1 POP SWAP3 SWAP2 POP POP JUMP JUMPDEST PUSH32 0x416D6F756E74206D7573742062652067726561746572207468616E207A65726F PUSH0 DUP3 ADD MSTORE POP JUMP JUMPDEST PUSH0 PUSH2 0x710 PUSH1 0x20 DUP4 PUSH2 0x6CC JUMP JUMPDEST SWAP2 POP PUSH2 0x71B DUP3 PUSH2 0x6DC JUMP JUMPDEST PUSH1 0x20 DUP3 ADD SWAP1 POP SWAP2 SWAP1 POP JUMP JUMPDEST PUSH0 PUSH1 0x20 DUP3 ADD SWAP1 POP DUP2 DUP2 SUB PUSH0 DUP4 ADD MSTORE PUSH2 0x73D DUP2 PUSH2 0x704 JUMP JUMPDEST SWAP1 POP SWAP2 SWAP1 POP JUMP JUMPDEST PUSH32 0x4E487B7100000000000000000000000000000000000000000000000000000000 PUSH0 MSTORE PUSH1 0x11 PUSH1 0x4 MSTORE PUSH1 0x24 PUSH0 REVERT JUMPDEST PUSH0 PUSH2 0x77B DUP3 PUSH2 0x543 JUMP JUMPDEST SWAP2 POP PUSH2 0x786 DUP4 PUSH2 0x543 JUMP JUMPDEST SWAP3 POP DUP3 DUP3 ADD SWAP1 POP DUP1 DUP3 GT ISZERO PUSH2 0x79E JUMPI PUSH2 0x79D PUSH2 0x744 JUMP JUMPDEST JUMPDEST SWAP3 SWAP2 POP POP JUMP JUMPDEST PUSH0 PUSH2 0x7AE DUP3 PUSH2 0x543 JUMP JUMPDEST SWAP2 POP PUSH2 0x7B9 DUP4 PUSH2 0x543 JUMP JUMPDEST SWAP3 POP DUP3 DUP3 MUL PUSH2 0x7C7 DUP2 PUSH2 0x543 JUMP JUMPDEST SWAP2 POP DUP3 DUP3 DIV DUP5 EQ DUP4 ISZERO OR PUSH2 0x7DE JUMPI PUSH2 0x7DD PUSH2 0x744 JUMP JUMPDEST JUMPDEST POP SWAP3 SWAP2 POP POP JUMP JUMPDEST PUSH32 0x496E73756666696369656E742066756E64730000000000000000000000000000 PUSH0 DUP3 ADD MSTORE POP JUMP JUMPDEST PUSH0 PUSH2 0x819 PUSH1 0x12 DUP4 PUSH2 0x6CC JUMP JUMPDEST SWAP2 POP PUSH2 0x824 DUP3 PUSH2 0x7E5 JUMP JUMPDEST PUSH1 0x20 DUP3 ADD SWAP1 POP SWAP2 SWAP1 POP JUMP JUMPDEST PUSH0 PUSH1 0x20 DUP3 ADD SWAP1 POP DUP2 DUP2 SUB PUSH0 DUP4 ADD MSTORE PUSH2 0x846 DUP2 PUSH2 0x80D JUMP JUMPDEST SWAP1 POP SWAP2 SWAP1 POP JUMP JUMPDEST PUSH0 PUSH2 0x857 DUP3 PUSH2 0x543 JUMP JUMPDEST SWAP2 POP PUSH2 0x862 DUP4 PUSH2 0x543 JUMP JUMPDEST SWAP3 POP DUP3 DUP3 SUB SWAP1 POP DUP2 DUP2 GT ISZERO PUSH2 0x87A JUMPI PUSH2 0x879 PUSH2 0x744 JUMP JUMPDEST JUMPDEST SWAP3 SWAP2 POP POP JUMP INVALID LOG2 PUSH5 0x6970667358 0x22 SLT KECCAK256 KECCAK256 0xAD GAS 0xB3 0x22 0x21 0xF MLOAD LOG3 0x21 SWAP11 INVALID 0x2A GASLIMIT 0xF6 0xB1 EQ 0x21 0x2D 0xE9 DUP7 KECCAK256 DUP6 0xC1 TIMESTAMP 0xBB CALLDATACOPY MSTORE8 0xED 0xBD EXTCODESIZE 0xE2 PUSH5 0x736F6C6343 STOP ADDMOD BYTE STOP CALLER "
				},
				"gasEstimates": {
					"creation": {
						"codeDepositCost": "446000",
						"executionCost": "478",
						"totalCost": "446478"
					},
					"external": {
						"depositFunds(string)": "infinite",
						"getBalance(string)": "infinite",
						"projectBalances(string)": "infinite",
						"releaseFunds(string,address,uint256)": "infinite"
					}
				},
				"methodIdentifiers": {
					"depositFunds(string)": "a45ccbc6",
					"getBalance(string)": "3a51d246",
					"projectBalances(string)": "e1a0d576",
					"releaseFunds(string,address,uint256)": "a4ce6c16"
				}
			},
			"storageLayout": {
				"storage": [
					{
						"astId": 5,
						"contract": "hardhat/contracts/Escrow.sol:Escrow",
						"label": "projectBalances",
						"offset": 0,
						"slot": "0",
						"type": "t_mapping(t_string_memory_ptr,t_uint256)"
					}
				],
				"types": {
					"t_mapping(t_string_memory_ptr,t_uint256)": {
						"encoding": "mapping",
						"key": "t_string_memory_ptr",
						"label": "mapping(string => uint256)",
						"numberOfBytes": "32",
						"value": "t_uint256"
					},
					"t_string_memory_ptr": {
						"encoding": "bytes",
						"label": "string",
						"numberOfBytes": "32"
					},
					"t_uint256": {
						"encoding": "inplace",
						"label": "uint256",
						"numberOfBytes": "32"
					}
				}
			},
			"userdoc": {
				"kind": "user",
				"methods": {},
				"version": 1
			}
		}
	}
}